:100000000A128A110E283034FE00030EF0000A088E
:10001000F1007F08F2000A168A118C2D0A128A114B
:1000200011288317A030FD001F30FE008530FF002F
:10003000903084000A168A1599270A128A110A122A
:100040008A1103200A128A11EC008313A030840065
:10005000CD300A168A151427E901EA01EB01F801EF
:10006000F901FA0183010A168A11B12B5B3083165C
:10007000D00083125A08E1005908E000D90A031998
:10008000DA0A6108FF00600884000A168A1100205D
:100090000A128A118316E20062080319B62E25306F
:1000A000620603195E2883125808840083166208CA
:1000B0008313800001308312D8073928D101D2017F
:1000C00083125A08FF00590884000A168A1100207A
:1000D0000A128A112E3A031DBC28831652170130CA
:1000E0008312D9070318DA0A0030DA078316DD0114
:1000F000DE0183125A08FF00590884000A168A118B
:1001000000200A128A110A168A1558270A128A1123
:10011000031CC3280A30F3000030F40083165E0885
:10012000F6005D08F5000A168A1123220A128A11C8
:1001300074088316DE007308DD0083125A08FF007E
:10014000590884000A168A1100200A128A11D03E2A
:10015000E000FF3003180030E10060088316DD077F
:100160000318DE0A831261088316DE07013083124A
:10017000D9070318DA0A79288316DD01DE01521641
:10018000C3285215E32883125A08E1005908E000F9
:10019000D90A0319DA0A6108FF00600884000A1608
:1001A0008A1100200A128A118316E200003A03190C
:1001B000B62E643A0319E328023A0319C1280F3A0C
:1001C0000319E3283928003051058312E000073075
:1001D000831652058312E100600861040319962D0D
:1001E0008316521EF7280630DD000030DE0050086E
:1001F000840083130008DF00840A0008E000840AFA
:100200000008E1000330D0075F088312A0008316C6
:1002100060088312A100831661088312A2000030D7
:10022000A3000030A4000030A5000A168A116C2239
:100230000A128A110318322983165F08F300600836
:10024000F4006108F5000A168A150C270A128A11B3
:100250007308DF007408E0007508E1000330D10482
:100260000030D2048316D301D401610860045F0416
:100270000319142ADF308400831300088312E0007E
:10028000840A0008E100840A0008E200840A0008E9
:10029000E3000F300310E30CE20CE10CE00CFF3E36
:1002A000031D4A29FF306005E40000306105E500C8
:1002B0006408823E8316D300831265080318013E4A
:1002C000FF3E8316D400FF30D3070318D40AFF3053
:1002D000D4070330F3000030F4005408F60053084C
:1002E000F5000A168A1123220A128A11740883164D
:1002F000D4007308D3000A308312A2000030A30098
:10030000831654088312A500831653088312A40091
:100310000A168A11DB240A128A1123088316D400D4
:10032000831222088316D300D41F9C29FF30D307E1
:100330000318D40AFF30D4075303FF3A0A128A1570
:1003400071250A128A113C088316D50083123D08D4
:100350008316D60083123E088316D7005F088312E7
:10036000AD00831660088312AE0083166108831205
:10037000AF00831655088312B00083165608831207
:10038000B100831657088312B2000A168A1161273A
:100390000A128A112D088316D50083122E0883169F
:1003A000D60083122F088316D70055088312A000A9
:1003B000831656088312A100831657088312A200E1
:1003C0000030A3008030A4003F30A5000A168A1137
:1003D0006C220A128A110318F429FF308316D307FE
:1003E0000318D40AFF30132A831655088312A0007D
:1003F000831656088312A100831657088312A200A1
:100400000030A3002030A4004130A5000A168A1154
:100410006C220A128A11031C142A01308316D30796
:100420000318D40A0030D40783165E08803AFF0010
:1004300080307F02031D1E2A0D305D0203184A2AF8
:10044000831603135D080A128A151A240A128A11E8
:100450003C08C6003D08C7003E08C80083165F0878
:100460008312C900831660088312CA0083166108CC
:100470008312CB000A128A1512220A128A11460828
:100480008316DF00831247088316E00083124808B2
:100490008316E100831603135408803AFF0080306E
:1004A0007F02031D552A0A3053020318802A83163F
:1004B0000313610860045F040319E62A5F088312CE
:1004C000C300831660088312C40083166108831278
:1004D000C5000A128A150D200A128A114608450421
:1004E00044044304031DE62A83165408803AFF009F
:1004F00080307F02031D7E2A02305302031CE62A4D
:100500008316031355088312A0008316560883121E
:10051000A100831657088312A2007030A30089300F
:10052000A4004030A5000A168A116C220A128A1112
:1005300003189C2AF7309D2AF8308316D307031836
:10054000D40AFF30D40753080A128A1571250A12FB
:100550008A113C088316D50083123D088316D60005
:1005600083123E088316D7005F088312A00083160B
:1005700060088312A100831661088312A20083160B
:1005800055088312A300831656088312A40083160D
:1005900057088312A5000A168A11C2260A128A1168
:1005A00023088316DC00831222088316DB008312E3
:1005B00021088316DA00831220088316D900003040
:1005C000DF000030E0000030E1003F2B8316031312
:1005D0005F088312C300831660088312C400831669
:1005E00061088312C5000A128A150D200A128A11A9
:1005F00046088316DC00831245088316DB0083124D
:1006000044088316DA00831243088316D9005C0875
:100610008312A60083165B088312A50083165A086E
:100620008312A400831659088312A3000A168A11A4
:1006300047220A128A112308D2002408D300250871
:10064000D40083165F088312D500831660088312D6
:10065000D600831661088312D7000A168A118721F3
:100660000A128A1152088316DF0083125308831678
:10067000E000831254088316E100D301D401013055
:10068000E20062088312E00001300310E00DFF3E3B
:10069000031D452B0310600D603E8400903003184D
:1006A000013EFF000A168A1100200A128A11E10099
:1006B0000A168A1100200A128A11E2000A168A110B
:1006C00000200A128A11E3000A168A1100200A1279
:1006D0008A11E400640883165C02031D7F2B8312D9
:1006E000630883165B02031D7F2B83126208831647
:1006F0005A02031D7F2B8312610883165902031CC3
:10070000872B0130E2070A306206031D412B510896
:1007100003390319942B8312580884002D30831356
:10072000800001308312D80701308316E202620A8A
:1007300003192B2C62088312E00001300310E00D36
:10074000FF3E031D9E2B0310600D603E8400903021
:100750000318013EFF000A168A1100200A128A11AE
:10076000A0000A168A1100200A128A11A1000A1696
:100770008A1100200A128A11A2000A168A1100208A
:100780000A128A11A30083165C088312A70083163D
:100790005B088312A60083165A088312A5008316ED
:1007A00059088312A4000A168A1130250A128A11E8
:1007B00023088316D800831222088316D7008312D9
:1007C00021088316D600831220088316D500003036
:1007D0008312B0000030AF000030AE000A30AD0030
:1007E000831658088312B400831657088312B30087
:1007F000831656088312B200831655088312B1007F
:100800000A168A1141240A128A1130088316D80068
:1008100083122F088316D70083122E088316D60062
:1008200083122D088316D50083125808840083167E
:100830005508303E8F2B8312031358088400303044
:10084000831380000130D807FF308316D3070318C5
:10085000D40AFF30D4075408803AFF0080307F026A
:10086000031D342C0130530203181B2C8316031371
:100870005E08803AFF0080307F02031D412C093062
:100880005D02031C472C0830831603134A2C831681
:1008900003135D08E20062088312E000E1016008D2
:1008A0008316DD02831261088316031CDE03DE0259
:1008B00062080319632C8312580884002E308313B6
:1008C00080000130D807831662080A128A15712544
:1008D0000A128A113C088316CD0083123D08831644
:1008E000CE0083123E088316CF004D088312B0005D
:1008F00083164E088312B10083164F088312B2008C
:1009000083165F088312AD00831660088312AE0061
:10091000831661088312AF000A168A1161270A1232
:100920008A112D08C3002E08C4002F08C5000A1222
:100930008A150D200A128A1146088316DC008312DC
:1009400045088316DB00831244088316DA008312FD
:1009500043088316D9000130E202620A0319912D7F
:1009600062088312E00001300310E00DFF3E031D1A
:10097000B42C0310600D603E840090300318013EDB
:10098000FF000A168A1100200A128A11A0000A1616
:100990008A1100200A128A11A1000A168A11002069
:1009A0000A128A11A2000A168A1100200A128A115C
:1009B000A30083165C088312A70083165B088312CA
:1009C000A60083165A088312A500831659088312BD
:1009D000A4000A168A1130250A128A1123088316E8
:1009E000D800831222088316D700831221088316A9
:1009F000D600831220088316D50000308312B00081
:100A00000030AF000030AE000A30AD008316580849
:100A10008312B400831657088312B3008316560856
:100A20008312B200831655088312B1000A168A1188
:100A300041240A128A1130088316D80083122F0825
:100A40008316D70083122E088316D60083122D0832
:100A50008316D50083125808840083165508303E4B
:100A60008313800001308312D80783166208831233
:100A7000E00001300310E00DFF3E031D3A2D03108E
:100A8000600D603E840090300318013EFF000A169E
:100A90008A1100200A128A11AD000A168A1100205C
:100AA0000A128A11AE000A168A1100200A128A114F
:100AB000AF000A168A1100200A128A11B0008316AC
:100AC0005C088312B40083165B088312B30083169C
:100AD0005A088312B200831659088312B1000A160D
:100AE0008A1141240A128A1130088316DC0083120D
:100AF0002F088316DB0083122E088316DA00831278
:100B00002D08A92C831258088400303083138000EC
:100B10000130D807FF308316DD070318DE0AFF30E7
:100B2000DE075D085E0403193928822D83165008FC
:100B30008400831300088312E000840A0008E100A7
:100B400060088316D900831261088316DA0000302A
:100B5000DA1BFF30DB00DC000230D007DC1FBF2DCA
:100B60000330D1040030D204D909DA09DB09DC09E9
:100B7000D90A0319DA0A0319DB0A0319DC0A5D082A
:100B80005E04031DCF2D5C085B045A045904031D49
:100B9000CF2D0130DD070318DE0A0030DE070130FB
:100BA000E20062088312E00001300310E00DFF3E16
:100BB000031DD52D0310600D603E84009030031896
:100BC000013EFF000A168A1100200A128A11E10074
:100BD0000A168A1100200A128A11E2000A168A11E6
:100BE00000200A128A11E3000A168A1100200A1254
:100BF0008A11E400640883165C02031D0F2E831221
:100C0000630883165B02031D0F2E8312620883168E
:100C10005A02031D0F2E8312610883165902031C0A
:100C2000172E0130E2070A306206031DD12D5E083F
:100C3000803A803C031D1E2E5D086202031C3C2E80
:100C4000831603135E08803A8312E000803060024E
:100C5000031D2D2E831662085D0203183C2E831699
:100C6000031362088312E000E10160088316DD00CF
:100C7000831261088316DE008316031351080339BB
:100C800003194B2E8312580884002D3083138000E3
:100C900001308312D807FF308316DD070318DE0A00
:100CA000FF30DE075D0A03195E0A03193928003098
:100CB0008312B0000030AF000030AE000A30AD004B
:100CC00083165D088312E00001300310E00DFF3E43
:100CD000031D652E0310600D603E840090300318E4
:100CE000013EFF000A168A1100200A128A11A00094
:100CF0000A168A1100200A128A11A1000A168A1106
:100D000000200A128A11A2000A168A1100200A1273
:100D10008A11A30083165C088312A70083165B0860
:100D20008312A60083165A088312A5008316590859
:100D30008312A4000A168A1130250A128A11230888
:100D4000B4002208B3002108B2002008B1000A163E
:100D50008A1141240A128A112D08303E8316E200BE
:100D600083125808840083166208462E831258089E
:100D700084008313800108007130831603138F00F1
:100D8000F830850003178901880183120313850158
:100D90000A128A11D9270A128A110A168A150427FB
:100DA0000A128A110A168A1575270A128A118312E5
:100DB0000313A0012730A1009130A20000300A16D1
:100DC0008A15E3270A128A110B3083120313B50028
:100DD0002630B4005D30B300B30BEC2EB40BEC2E18
:100DE000B50BEC2E0A168A1575270A128A11831282
:100DF0000313A0011B30A1009130A20000300A169D
:100E00008A15E3270A128A11C0300A168A110223B2
:100E10000A128A112D2F6C08B600B7012A300A1663
:100E20008A1199220A128A11831203136908C53E96
:100E300084006C08831380000130E90702308312BC
:100E40000313B5000430B400B930B300B30B262F40
:100E5000B40B262FB50B262F2D2F0730831203132B
:100E600069020318452F0A128A1582200A128A1174
:100E7000EC006C0803191E2F23306C06031D0B2F8A
:100E80006908C53E840083138001C530F3008830B3
:100E9000F4009030F5000630F6000030F7000A1636
:100EA0008A116F230A128A1173087404031D7F2F9D
:100EB0000A168A1575270A128A1183120313A001D4
:100EC000E530A1009030A20000300A168A15E32711
:100ED0000A128A110130EA00F430A0000130A100AA
:100EE000F430A2000130A300E830A4000330A500D4
:100EF00056300A168A118B240A128A11C02F01302B
:100F00008316A5070318A60A0030A6070A168A1535
:100F100075270A128A1183120313A001B630A100AB
:100F20009030A20000300A168A15E3270A128A11AF
:100F3000EA012C30A0000130A100BC30A200023038
:100F4000A300E830A4000330A50041300A168A113E
:100F50008B240A128A1183162608803AFF008030FB
:100F60007F02031DB52F03302502031CC32F0A1671
:100F70008A1575270A128A11023083120313EA00B8
:100F80008316A501A601153083120313B5004B305B
:100F9000B400BD30B300B30BCB2FB40BCB2FB50BCC
:100FA000CB2FD22F0A168A15752783120313E90156
:100FB0000800831687012730F700F530F600F60B9E
:100FC000DF2FF70BDF2F02300A168A1102230A12D5
:100FD0008A1128300A168A1102230A128A11013056
:100FE0000A168A1102230A128A110C300A168A1173
:100FF00002230A128A1106300A168A1102230800F7
:1010000083160313B301B401B101B201AF01B00102
:101010008312EB01F901F80108004308C7004408F6
:10102000C8004508C9000310480D490DCF004F08FE
:10103000031D23280030C6000030C5000030C40066
:101040000030C30008004308C7004408C800450832
:10105000C90017300310C90CC80CC70CFF3E031D94
:101060002A284708CA00C417FF30C305FF30C4054B
:101070000030C5054308CB004408CC004508CD002E
:10108000CE018E30CF02CF1F58284F08803A8F3EB6
:10109000031C1A2801300310CE0CCD0CCC0CCB0C49
:1010A000FF3E031D4B280130CF0703196B284A2848
:1010B00018304F0203181A284F0803196B28013003
:1010C000C7000310CB0DCC0DCD0DCE0DC70B612885
:1010D0000130CF025C284A0803197928CB09CC09D2
:1010E000CD09CE09CB0A0319CC0A0319CD0A03197D
:1010F000CE0A4E08C6004D08C5004C08C4004B0877
:10110000C3000800903084002030F3001030F40059
:1011100083170008F500040AF6007308840083139F
:1011200075088000040AF30076088400F40B882810
:1011300083120313B001B101B2018312031331080A
:101140003204031DBF28FE3086004230F300F30B4B
:10115000A728000083120313061AB3282008B00042
:10116000AA282108B000861AB828B1282208B000A1
:10117000061BBD28B6282308B000861FBB283103F4
:101180003204031DDF28FD3086004230F300F30BEC
:10119000C728000083120313061AD3282408B000BE
:1011A000CA282508B000861AD828D1282608B000F9
:1011B000061BDD28D6282708B000861FDB28023052
:1011C00031063204031D0029FB3086004230F30053
:1011D000F30BE828000083120313061AF4282808EA
:1011E000B000EB282908B000861AF928F2282A084E
:1011F000B000061BFE28F7282B08B000861FFC282D
:10120000033031063204031D2129F73086004230B5
:10121000F300F30B0929000083120313061A1529A2
:101220002C08B0000C292D08B000861A1A291329A1
:101230002E08B000061B1F2918292F08B000861F92
:101240001D290130B1070318B20A0030B207320875
:10125000803AFF0080307F02031D302904303102C4
:10126000031C9D2883120313300808007130831675
:1012700003138F000A128A11D9270A128A158312C2
:101280000313A0019030A1009030A20000300A1694
:101290008A15E3270A128A15153083120313E80012
:1012A0004B30E700BD30E600E60B5429E70B54292C
:1012B000E80B54295B290A168A1575270A128A1524
:1012C000831603130514851403300317880089015E
:1012D0000A168A153D270A128A158312A0013B308F
:1012E000A1009130A20000300A168A15E3270A12E5
:1012F0008A15C0300A168A1102230A128A15003094
:10130000F300F4000A168A11CD220A128A15740815
:101310008316E4007308E3000130F3000030F400AA
:101320000A168A11CD220A128A1574088316AC0097
:101330007308AB00FF308312E6000330E70083162A
:101340006308831266028316E5006408031C640ABE
:10135000831267028316E60037308312AD00263011
:10136000AE003D30AF00831666088312A4008316DA
:1013700065088312A3000A168A116A210A128A15C7
:101380002308B0002408B1002508B2000A168A110B
:1013900061270A128A152D088316A00083122E08D1
:1013A0008316A10083122F088316A200B530831282
:1013B000D8000130D9009130DA008316200883125A
:1013C000DB00831621088312DC00831622088312B7
:1013D000DD0083162C088312DF0083162B0883128E
:1013E000DE000A128A1136200A128A15B530F6007C
:1013F0000030F7000A168A1100220A128A151530E9
:1014000083120313E8004B30E700BD30E600E60B23
:10141000072AE70B072AE80B072A0E2A0A168A155D
:10142000752708004608CC004708CD004808CE00C4
:1014300003104D0D4E0DD1004908CC004A08CD00D7
:101440004B08CE0003104D0D4E0DD000510803196E
:10145000352A5008510203183C2A5008CC00510884
:10146000CC0219304C02031C3C2A4908C6004A0829
:10147000C7004B08C80008005008031908005108AD
:10148000500203184B2A5108CC005008CC021930E6
:101490004C02031808000630CF00C81BCF17CB1B27
:1014A0004F17C717FF30C605FF30C7050030C80506
:1014B000CA17FF30C905FF30CA050030CB055008F8
:1014C00051020318872A01300310C90DCA0DCB0D34
:1014D000FF3E031D642A0130D00250085106031953
:1014E000822A0130CF024F0807390319822A632A62
:1014F00001300310C80CC70CC60CFF3E031D792A2F
:101500000130D107510850060319AE2A782A510834
:1015100050020318AE2A01300310C60DC70DC80DC6
:10152000FF3E031D8C2A0130D102500851060319D9
:10153000AA2A0130CF024F0807390319AA2A8B2A99
:1015400001300310CB0CCA0CC90CFF3E031DA12AAD
:101550000130D00751085006031DA02ACF1FC02A12
:10156000FF30C606FF30C706FF30C8060130C60789
:10157000003003180130C707003003180130C807D6
:101580004F1FD22AFF30C906FF30CA06FF30CB06F4
:101590000130C907003003180130CA0700300318B2
:1015A0000130CB07CF014608C907470803110318CC
:1015B000470A031DCA07480803110318480A031DF8
:1015C000CB07CB1FF52AFF30C906FF30CA06FF3014
:1015D000CB060130C907003003180130CA070030BC
:1015E00003180130CB070130CF004908F3004A0847
:1015F000F4004B08F5005108F6004F08F7000A16F2
:101600008A11E9257308C6007408C7007508C80068
:101610000800203084008313000883120313A600FF
:10162000840A0008A700840A0008A800840A0008A9
:10163000A9000310280D290DB3003308031D292B21
:101640000030A3000030A2000030A1000030A00054
:101650000800233084000008A600840A0008A700C0
:10166000840A0008A800840A0008A9000310280DB5
:10167000290DB20032080319202B203084000030DD
:101680008004840A00308004840A80308004840A44
:101690000030800420308400FF308005840AFF3051
:1016A0008005840AFF308005840A003080052330DD
:1016B000840000308004840A00308004840A803072
:1016C0008004840A0030800423308400FF308005C9
:1016D000840AFF308005840AFF308005840A0030C8
:1016E00080050030B1000030B0000030AF000030A5
:1016F000AE007F30B302A0303207A6002608B30246
:101700002030B2000130A6000310AE0DAF0DB00DB9
:10171000B10DA60B842B233084000008A600840A98
:101720000008A700840A0008A800840A0008A9008D
:10173000203084000008AA00840A0008AB00840A54
:101740000008AC00840A0008AD0029082D02031D22
:10175000B32B28082C02031DB32B27082B02031DD3
:10176000B32B26082A02031CD82B23308400000840
:10177000A600840A0008A700840A0008A800840ABA
:101780000008A9002030840026088002840A270867
:10179000031C270F8002840A2808031C280F8002DC
:1017A000840A2908031C290A8002033084022E14AB
:1017B000203084000310800D840A800D840A800D7F
:1017C000840A800D8403840384030130B202031D64
:1017D000822BB31FFE2B3308803A9F3E031C202B25
:1017E00001300310B10CB00CAF0CAE0CFF3E031D6A
:1017F000F12B0130B3070319112CF02B20303302E9
:101800000318202B33080319112C0130A6000310F4
:10181000AE0DAF0DB00DB10DA60B072C0130B3020C
:10182000022C3108A3003008A2002F08A1002E08C6
:10183000A00008008312C5006E304502031CCE2CA8
:101840000330AA000A30F6006430F30045080A1697
:101850008A11E1210A128A150A168A11C2210A1276
:101860008A150A168A1566270A128A15543E8400BC
:1018700090300318013EFF000A168A1100200A1258
:101880008A15AD000A168A1100200A128A15AE00C8
:101890000A168A1100200A128A15AF000330AA0026
:1018A0006430F60045080A168A11C2210A128A1508
:1018B0000A168A1566270A128A156F3E8400903030
:1018C0000318013EFF000A168A1100200A128A1529
:1018D000B0000A168A1100200A128A15B1000A16F1
:1018E0008A1100200A128A15B2000A168A1161278D
:1018F0000A128A152D08C2002E08C3002F08C40042
:101900000330AA000A30F30045080A168A11E121C3
:101910000A128A150A168A1566270A128A15393E8E
:10192000840090300318013EFF000A168A1100203F
:101930000A128A15AD000A168A1100200A128A15A9
:10194000AE000A168A1100200A128A15AF0042085A
:10195000B0004308B1004408B2000A168A1161279A
:101960000A128A152D08BF002E08C0002F08C100DA
:101970000030AD000030AE003F30AF003F08B00097
:101980004008B1004108B2000A168A1161272D08EB
:10199000BC002E08BD002F08BE0008000B30450219
:1019A000031C412D0330AA000A30F30045080A1633
:1019B0008A11E1210A128A150A168A1566270A1267
:1019C0008A15393E840090300318013EFF000A1644
:1019D0008A1100200A128A15AD000A168A11002009
:1019E0000A128A15AE000A168A1100200A128A15F8
:1019F000AF000330AA000A30F60045080A168A1123
:101A0000C2210A128A150A168A1566270A128A1531
:101A1000543E840090300318013EFF000A168A11DC
:101A200000200A128A15B0000A168A1100200A1234
:101A30008A15B1000A168A1100200A128A15B2000E
:101A40000A168A1161270A128A152D08C2002E086B
:101A5000C3002F08C4000030AD000030AE003F309E
:101A6000AF004208B0004308B1004408B2000A16B3
:101A70008A1161272D08BC002E08BD002F08BE006A
:101A800008000030AD000030AE003F30AF00033042
:101A9000AA0045080A168A1566270A128A15393ED1
:101AA000840090300318013EFF000A168A110020BE
:101AB0000A128A15B0000A168A1100200A128A1525
:101AC000B1000A168A1100200A128A15B2000A16FD
:101AD0008A1161272D08BC002E08BD002F08BE000A
:101AE00008008312C200C21FBC2E4203FF3AC2008C
:101AF0004208803A123E031C312E0330AA000A30FD
:101B0000A2000030A3004208F500F601F51BF60321
:101B10006430F3000030F4000A168A11F8230A1228
:101B20008A157408A5007308A4000A168A11DB241C
:101B30000A128A152208093E0A168A1566270A1211
:101B40008A15393E840090300318013EFF000A16C2
:101B50008A1100200A128A15AD000A168A11002087
:101B60000A128A15AE000A168A1100200A128A1576
:101B7000AF000330AA006430A2000030A300420886
:101B8000A400A501A41BA5030A168A11DB240A12CE
:101B90008A152208123E0A168A1566270A128A1525
:101BA000393E840090300318013EFF000A168A1166
:101BB00000200A128A15B0000A168A1100200A12A3
:101BC0008A15B1000A168A1100200A128A15B2007D
:101BD0000A168A1161270A128A152D08BF002E08DD
:101BE000C0002F08C1000330AA004208F500F6012A
:101BF000F51BF6030A30F3000030F4000A168A11D0
:101C0000F8230A128A1573080A168A1566270A121B
:101C10008A15393E840090300318013EFF000A16F1
:101C20008A1100200A128A15AD000A168A110020B6
:101C30000A128A15AE000A168A1100200A128A15A5
:101C4000AF003F08B0004008B1004108B2000A16DA
:101C50008A1161272D08BC002E08BD002F08BE0088
:101C600008004208803A753E031C9D2E0330AA00EE
:101C70004208F500F601F51BF6030A30F3000030C8
:101C8000F4000A168A11F8230A128A1573080A1634
:101C90008A1566270A128A15393E84009030031887
:101CA000013EFF000A168A1100200A128A15AD00B3
:101CB0000A168A1100200A128A15AE000A168A1125
:101CC00000200A128A15AF000330AA000A30A200D1
:101CD0000030A3004208A400A501A41BA5030A1616
:101CE0008A11DB240A128A152208093E0A168A156F
:101CF00066270A128A15393E840090300318013E87
:101D0000FF000A168A1100200A128A15B0000A166E
:101D10008A1100200A128A15B1000A168A110020C1
:101D20000A128A15B2000A168A1161272D08BC0012
:101D30002E08BD002F08BE0008000330AA0042088C
:101D40000A168A1566270A128A15393E84009030D1
:101D50000318013EFF000A168A1100200A128A1594
:101D6000BC000A168A1100200A128A15BD000A1644
:101D70008A110020BE0008004208803A123E031C6F
:101D8000752F0330AA000A30A2000030A3004208D9
:101D9000F500F601F51BF6036430F3000030F400A3
:101DA0000A168A11F8230A128A157408A500730806
:101DB000A4000A168A11DB240A128A152208093E99
:101DC0000A168A1566270A128A15123E8400903078
:101DD0000318013EFF000A168A1100200A128A1514
:101DE000AD000A168A1100200A128A15AE000A16E2
:101DF0008A1100200A128A15AF000330AA0064304D
:101E0000A2000030A3004208A400A501A41BA50362
:101E10000A168A11DB240A128A152208123E0A16B3
:101E20008A1566270A128A15123E8400903003181C
:101E3000013EFF000A168A1100200A128A15B0001E
:101E40000A168A1100200A128A15B1000A168A1190
:101E500000200A128A15B2000A168A1161270A1296
:101E60008A152D08BF002E08C0002F08C1000330BE
:101E7000AA004208F500F601F51BF6030A30F3004C
:101E80000030F4000A168A11F8230A128A15730822
:101E90000A168A1566270A128A15123E84009030A7
:101EA0000318013EFF000A168A1100200A128A1543
:101EB000AD000A168A1100200A128A15AE000A1611
:101EC0008A1100200A128A15AF003F08B0004008AE
:101ED000B1004108B2000A168A1161272D08BC0022
:101EE0002E08BD002F08BE0008004208803A753E4B
:101EF000031CE12F0330AA004208F500F601F51B90
:101F0000F6030A30F3000030F4000A168A11F823B1
:101F10000A128A1573080A168A1566270A128A1584
:101F2000123E840090300318013EFF000A168A1109
:101F300000200A128A15AD000A168A1100200A1222
:101F40008A15AE000A168A1100200A128A15AF00FF
:101F50000330AA000A30A2000030A3004208A40007
:101F6000A501A41BA5030A168A11DB240A128A15EF
:101F70002208093E0A168A1566270A128A15123E99
:101F8000840090300318013EFF000A168A110020D9
:101F90000A128A15B0000A168A1100200A128A1540
:101FA000B1000A168A1100200A128A15B2000A1618
:101FB0008A1161272D08BC002E08BD002F08BE0025
:101FC00008000330AA0042080A168A1566270A127A
:101FD0008A15123E840090300318013EFF000A1655
:101FE0008A1100200A128A15BC000A168A110020E4
:101FF0000A128A15BD000A168A110020BE000800C8
:10200000FF1B0A2883137F1883170008840A03190B
:10201000FF0A08007F087F398A000408840A031930
:10202000FF0A8200003480343F34003420344134CD
:102030000034C834423400347A34443440341C34DC
:1020400046345034C33447342434743449349734D8
:1020500018344B34BC34BE344C346B346E344E3490
:102060000334153450347934AD346034F3344934A6
:102070007134003480343F34CD34CC343D34D734E3
:1020800023343C34123483343A34B734D1343834C2
:10209000C63427343734383486343534C034D634F3
:1020A0003334CC342B343234703489343034E73424
:1020B000DB342E34E5343C341E344234A2340D3447
:1020C00001340034003400340A3400340034003465
:1020D0006434003400340034E83403340034003411
:1020E0001034273400340034A034863401340034F2
:1020F000403442340F340034803496349834003401
:102100000034E134F53405340034CA349A343B34B5
:1021100031343134313431343634303400340034F5
:102120004D344F344E34493454344F3452344534A2
:102130004F34203441344D344234493445344E34E4
:10214000543441344C34003453346934733474346B
:1021500065346D346134203442346C346F347134FE
:1021600075346534613464346F34003443346C3412
:10217000613476346534203449346E3463346F34DA
:1021800072347234653463347434613400344134ED
:102190006D346234613473342034433465347234C2
:1021A00072346134643461347334003441346D34D6
:1021B00062346134733420344134623469346534B8
:1021C0007234743461347334003443346C346134A5
:1021D00076346534203443346F3472347234653469
:1021E0006334743461340034503431342034433433
:1021F000653420342C345034323420344134623449
:10220000003454343A34203425342E343234663495
:1022100020344C343A34253464340034503431346E
:102220002034413462342C3420345034323420345D
:102230004334653400345034723465347334733449
:102240002034613420344B346534793400344234E2
:10225000693465346E34763465346E34693464348C
:102260006F340034503475346534723474346134EE
:1022700073343A340034533465346E3473346F3409
:102280007234003441344C34413452344D3441348E
:10229000003441344C3445345234543441340034E5
:1022A0000A128A11BC260A168A116A03031D5E29C6
:1022B0000230FA000A128A15002008006A08031D7D
:1022C0006329FA01080002306A06031D0800013084
:1022D000FA000800A601A41F7429A309A409A30AEF
:1022E0000319A40A0130A6002308F3002408F4000F
:1022F000F5018E30F6002608F7000A168A11E92546
:102300007308A3007408A4007508A5000800540809
:102310005304520403198E298030D4065508C60090
:102320005608C7005708C8005208C9005308CA0019
:102330005408CB000A128A1512224608D200470818
:10234000D3004808D40008002C3083120313A000E7
:102350000130A100F430A2000130A300D030A4006D
:102360000730A50052300A168A118B240A168A11EA
:10237000A001A430A1009030A20000300A168A15F6
:10238000E3270800A300A50176080319DF2901301F
:10239000A400F61BD0290310F60D0130A407C929AB
:1023A0000310A50D76082302031CDA297608A30280
:1023B00025140310F60C0130A402031DD0292508B2
:1023C0000800A0000830A100A2012008F400073096
:1023D0000310F40CFF3E031DE8292208F5007507E1
:1023E0007404A2000310A00D73082202031CFA2932
:1023F0007308A2020130A102031DE529220808008A
:10240000770883120313FF00760884000A168A11E6
:1024100000200A168A11003A031908007708FF0005
:10242000760884000A168A1100200A168A110A16F4
:102430008A1199220A168A110130F6070318F70A41
:102440000030F707002A8312A001A101731C2F2A74
:1024500075088312A0070318A10A7608A1070130A6
:102460000310F50DF60DFF3E031D302A0130031059
:10247000F40CF30CFF3E031D372A73087404031D8C
:10248000262A83122108F4002008F30008008E3069
:10249000A700FF3026050319592A01300310A60CA6
:1024A000A50CA40CA30CFF3E031D4E2A0130A70768
:1024B000492A2308F3002408F4002508F50027081A
:1024C000F600F7010A168A11E9257308A3007408BB
:1024D000A4007508A5000800A21F7B2A2008003C64
:1024E000A0002108031C210F003CA1002208031CAE
:1024F000220F803CA200A51F8A2A2308003CA300CB
:102500002408031C240F003CA4002508031C250FED
:10251000803CA5008030A2068030A5062508220256
:10252000031D080024082102031D080023082002BF
:102530000800F500F0307505F30007080F39730443
:1025400087000714871400008312031387100330D9
:10255000F4009730F300F30BAB2AF40BAB2AB02A4C
:102560007508F30004300310F30DFF3E031DB32A7A
:102570008312031307080F397304870087140000C0
:102580008312031387100830F400C930F300F30BF3
:10259000C72AF40BC72ACC2A080073080F39831204
:1025A0000313A000A00DA00D1F082006C3392006AC
:1025B0009F001F14133083120313A000A00BDE2A08
:1025C000831203139F149F18E32A1E08A000A10181
:1025D0002008F5002108F6007508A100A001831667
:1025E0001E0883122007A2000030031801302107C3
:1025F000A3002208F5002308F6007608F400750809
:10260000F3000800F500F0307505F30083120313A2
:1026100007080F397304870007108714000083121E
:10262000031387100330F4009730F300F30B162BDD
:10263000F40B162B1B2B7508F30004300310F30D5D
:10264000FF3E031D1E2B8312031307080F3973046B
:102650008700871400008312031387100830F400EA
:10266000C930F300F30B322BF40B322B372B08005D
:102670000A128A1536210A168A11003083120313B2
:10268000A000C830A1004130A200831620088312A8
:10269000A300831621088312A40083162208831244
:1026A000A5000A168A116C220A168A11031C642BD3
:1026B00083162C08803AFF0082307F02031D622BB4
:1026C000BD302B02031C6A2B0430FA000A128A1553
:1026D000002008007808031908000330652B01303A
:1026E000F6020030031CF703F702760A0319770A93
:1026F0000319AE2B73088400831300080319912B70
:102700007508FF00740884000A168A1100200A1652
:102710008A11A0007308840083130008200603199F
:10272000A52B7508FF00740884000A168A11002082
:10273000A0007308840083130008A1002008210270
:10274000F300F401031CF40308000130F307013027
:10275000F4070318F50A0030F5076F2BF301F401B5
:1027600008000A168A154A270A168A110A168A15B7
:1027700031270A168A11E12B0A168A1150210A16EE
:102780008A11E12B0A168A1138230A168A11E12BC5
:102790000A168A1526270A168A11E12B0A168A15A7
:1027A000CD270A168A11E12B0A168A15A6270A16C2
:1027B0008A11E12B0A168A151C270A168A11E12BA9
:1027C000FA017A08003A0319BC2B013A0319DA2BF3
:1027D000033A0319C22B013A0319C82B073A03190C
:1027E000CE2B013A0319D42BE02B0A128A110E28A2
:1027F000A101F61F022CF509F609F50A0319F60ADC
:102800000130A100F41F092CF309F409F30A03199C
:10281000F40A730874040319342C0130A000F41B6B
:102820001B2C01300310F30DF40DFF3E031D122C81
:102830000130A0070F2C74087602031D212C7308A9
:102840007502031C292C7308F5027408031CF60397
:10285000F60201300310F40CF30CFF3E031D2A2C8A
:102860000130A002031D1B2C210803193C2CF50983
:10287000F609F50A0319F60A7608F4007508F3005C
:10288000080030082F042E042D040319822C013077
:10289000F500B01B572C0130F4000310AD0DAE0D48
:1028A000AF0DB00DF40B4D2C0130F507492C30085D
:1028B0003402031D652C2F083302031D652C2E08DE
:1028C0003202031D652C2D083102031C752C2D08C6
:1028D000B1022E08031C2E0FB2022F08031C2F0F6B
:1028E000B3023008031C300FB40201300310B00CE7
:1028F000AF0CAE0CAD0CFF3E031D762C0130F50283
:10290000031D572C3408B0003308AF003208AE0066
:102910003108AD000800AA00A801A9012508290274
:10292000031D942C240828020318080056302A0698
:10293000031D9C2C0516A62C41302A06031DA22C33
:102940008516A62C52302A06031905172108F40013
:102950002008F3000A168A15B8270A168A1156307D
:10296000831203132A06031DB72C0512C12C413014
:102970002A06031DBD2C8512C12C52302A060319CC
:1029800005132308F4002208F3000A168A15B82755
:102990000A168A118312031322082007A6002308AF
:1029A0000318230A2107A7002608A8070318A90A65
:1029B0002708A9078E2CA701A31FE52CA209A309AC
:1029C000A20A0319A30A0130A700A51FEE2CA4092F
:1029D000A509A40A0319A50A0130A706A801A9019F
:1029E000220823040319232D0130A600A31B022D66
:1029F00001300310A20DA30DFF3E031DF92C013081
:102A0000A607F62C01300310A80DA90DFF3E031DEB
:102A1000032D23082502031D0F2D22082402031C69
:102A2000182D2208A4022308031CA503A5022814BC
:102A300001300310A30CA20CFF3E031D192D013021
:102A4000A602031D022D270803192B2DA809A90989
:102A5000A80A0319A90A2908A3002808A200080047
:102A60000030AB000030AA000030A9000030A80000
:102A700023082204210420040319832D0130AC0013
:102A8000A31B4E2D0130F3000310A00DA10DA20DCC
:102A9000A30DF30B442D0130AC07402D0130F300A2
:102AA0000310A80DA90DAA0DAB0DF30B502D230893
:102AB0002702031D652D22082602031D652D21080E
:102AC0002502031D652D20082402031C762D2008F5
:102AD000A4022108031C210FA5022208031C220FB7
:102AE000A6022308031C230FA70228140130031099
:102AF000A30CA20CA10CA00CFF3E031D772D0130EE
:102B0000AC02031D4E2D2B08A3002A08A2002908A1
:102B1000A1002808A0000800FC30831203138F00D6
:102B200016308E0001308316B3070318B40A003044
:102B3000B4070130B1070318B20A0030B207013000
:102B4000AF070318B00A0030B0073408803AFF001E
:102B500083307F02031DAE2DE8303302031CB72DF6
:102B600083160313B301B40101308312EB00831603
:102B700003133208803AFF0087307F02031DC22D05
:102B8000D0303102031CCA2D83160313B101B201E8
:102B90000130F900831603133008803AFF008B30B0
:102BA0007F02031DD52DB8302F02031CDD2D8316A7
:102BB0000313AF01B0010130F800831203130C10AE
:102BC0007208FF0071088A00700E8300FE0E7E0EF0
:102BD000090076080319F12D750874047304031DA8
:102BE000022E0030F3000030F4000030F500080041
:102BF0000130F60701300310F50CF40CF30CFF3E26
:102C0000031DFB2DFE30750503191B2EF82D013019
:102C1000F6070130F307003003180130F4070030E5
:102C200003180130F50701300310F50CF40CF30C18
:102C3000FF3E031D142EFF30750503192E2E072E9F
:102C400002307602031C302E0130F60201300310F0
:102C5000F30DF40DF50DFF3E031D272EF41F202E5E
:102C60007618382EFF30F3057F30F405FF30F50578
:102C70000310F60C7608A000A101A2011030031089
:102C8000A00DA10DA20DFF3E031D3F2E2008F30451
:102C90002108F4042208F504770803190800F51741
:102CA00008008316031305158515033003178800E4
:102CB00003108312031305190314003003180130A5
:102CC000A500A6012508A8002608A900031085195B
:102CD0000314003003180130A500A6012508AA003E
:102CE0002608AB00A0013230A1009130A2000030D4
:102CF0000A168A15E3270A168A1128032904031DD8
:102D00008A2E2A032B04031D8A2EA001C730A1009E
:102D10009030A82E28032904031D972E2A082B047F
:102D2000031D972EA001F430A1009030A82E280892
:102D30002904031DA42E2A032B04031DA42EA00185
:102D40000E30A1009130A82EA001D630A100903005
:102D5000A20001300A168A15E3270A168A111530D7
:102D600083120313A7004B30A600BD30A500A50BAE
:102D7000B72EA60BB72EA70BB72EBE2E0A168A1596
:102D8000752708002008F3002108F4002208F50048
:102D90000310740D750DAB002B08031DD82E0030E9
:102DA000A3000030A2000030A1000030A000080005
:102DB0002308F3002408F4002508F5000310740D1F
:102DC000750DAA002A080319CF2EA117FF30A00500
:102DD000FF30A1050030A205A417FF30A305FF3086
:102DE000A4050030A5050030A9000030A80000307F
:102DF000A7000030A6007F30AB0298302A07F3000E
:102E00007308AB021830AA000130F3000310A60DBE
:102E1000A70DA80DA90DF30B062F25082202031DEF
:102E2000172F24082102031D172F23082002031C3B
:102E3000242F2308A0022408031C240FA102250824
:102E4000031C250AA202261401300310A00DA10DB7
:102E5000A20DFF3E031D252F0130AA02031D042FE2
:102E6000AB1F452F2B08803A973E031CCF2E013015
:102E70000310A90CA80CA70CA60CFF3E031D382FAD
:102E80000130AB070319582F372F18302B020318C6
:102E9000CF2E2B080319582F0130F3000310A60D75
:102EA000A70DA80DA90DF30B4E2F0130AB02492F32
:102EB0002908A3002808A2002708A1002608A000CE
:102EC00008002D08B3002E08B4002F08B500031029
:102ED000340D350DB6003608031D752F0030AD00DA
:102EE0000030AE000030AF0008003008B3003108F9
:102EF000B4003208B5000310340D350DBB003B089B
:102F0000031D892F0030AD000030AE000030AF004F
:102F100008003B087B3EB6072F08BB003208BB0603
:102F20008030BB05AE17B117FF30B005FF30B105DB
:102F30000030B2050030B7000030B8000030B900F2
:102F40000730BA002D1CB22F3008B7073108031123
:102F50000318310A031DB807320803110318320A97
:102F6000031DB90701300310AF0CAE0CAD0CFF3ED2
:102F7000031DB32F01300310B00DB10DB20DFF3E94
:102F8000031DBB2F0130BA02031DA22F0930BA0066
:102F90002D1CD82F3008B707310803110318310A48
:102FA000031DB807320803110318320A031DB907BD
:102FB00001300310AF0CAE0CAD0CFF3E031DD92F3A
:102FC00001300310B90CB80CB70CFF3E031DE12F04
:102FD0000130BA02031DC82F3708F3003808F40087
:102FE0003908F5003608F6003B08F7000A168A1182
:102FF000E9257308AD007408AE007508AF0008003D
:103E0800F030831603138605F0308604811308000A
:103E1800750874047304031908008030F506080057
:103E280064008001840A0406031900340406152F6F
:103E38000A168A11A4210A168A1578080319080097
:103E4800FA0108000A168A1151260A168A15053041
:103E5800FA000A128A15002008008B170B170C1499
:103E680083120C109001FC308F0016308E00101455
:103E7800080003139F171F129F1283121F083F3950
:103E880040389F009E0183169E0108000A128A117D
:103E9800D9270A168A150A168A1504270A168A15B2
:103EA8000A168A153D270800F400F3013A30740217
:103EB8000318642F30307402031C642F0130F300A0
:103EC800730C0800AC00AB012C1C6C2F2A08AB0744
:103ED8000310AA0D0310AC0C2C08031D682F2B0827
:103EE800080001300A168A1102230A168A150830BA
:103EF800F700C930F600F60B7F2FF70B7F2F842FC2
:103F080008003134323433344134343435343634BF
:103F1800423437343834393443342A34303423344F
:103F280044347E088A007F08820095270A168A157D
:103F38008000840A04087D0603190034FF0A031967
:103F4800FE0A992F83120313A0014930A100913072
:103F5800A20000300A168A15E3270A168A1579087E
:103F680003190800FA0108000130F3020030031CAD
:103F7800F403F402730A0319740A031908000330DE
:103F8800F6009730F500F50BC72FF60BC72FCC2F8F
:103F9800B82F83120313A0014230A1009130A20070
:103FA80000300A168A15E3270A168A1578080319B5
:103FB80008000230FA000A128A1500200800A3003F
:103FC800023023020318EC2F20080F398038EF2F16
:103FD80020080F39C038A40024080A168A110223C1
:103FE8000A168A15831203132108F6002208F7001F
:083FF8000A168A1100220800DC
:04400E00D520FF3F7B
:00000001FF
